:020000040800F2
:1000000040060020C9140008A9130008AB1300081B
:10001000AD130008AF130008B11300080000000082
:10002000000000000000000000000000B313000802
:10003000B513000800000000B7130008B91300084A
:10004000FD14000801150008051500080915000831
:100050000D150008111500081515000819150008E0
:100060001D15000821150008251500082915000890
:10007000BD1300082D1500083115000835150008BE
:10008000391500083D150008411500084515000800
:10009000491500084D1500085115000855150008B0
:1000A000591500085D150008611500086515000860
:1000B000691500086D150008711500087515000810
:1000C000791500087D1500088115000885150008C0
:1000D000891500088D15000891150008C513000842
:1000E00095150008991500089D150008A115000830
:1000F000A5150008A9150008AD150008B1150008E0
:10010000B5150008B9150008BD150008C11500088F
:10011000C5150008C9150008CD150008D11500083F
:10012000D5150008D9150008DD150008E1150008EF
:10013000E5150008E9150008ED150008F11500089F
:10014000F5150008F9150008FD150008011600084E
:1001500005160008091600080D16000811160008FB
:1001600015160008191600081D16000821160008AB
:1001700025160008291600082D16000800000000AA
:1001800031160008351600082DE9F843040016D092
:100190002078DFF8F462C10713D5B06800F00C00D6
:1001A000042807D0B06800F00C0008283DD1706822
:1001B00041023AD53068810303D56068002800F019
:1001C0005E812078B14F810719D5B06810F00C0F0F
:1001D00007D0B06800F00C0008285BD170684102BD
:1001E00058D43068810703D5E068012840F0478182
:1001F0003168206921F0F80141EAC00131602178BD
:10020000080779D56069A249002868D001220A60F0
:1002100000F042F90546706F81076DD400F03CF99B
:10022000401B0228F7D903202CE16068B0F5803F1D
:1002300004D1306840F48030306011E0B0F5A02F78
:10024000306806D140F480203060316841F480315C
:1002500005E020F480303060316821F48021316085
:10026000606858B100F018F9054630688103A8D4D9
:1002700000F012F9401B6528F7D3D4E700F00CF921
:100280000546306881039CD500F006F9401B6528BF
:10029000F7D3C8E7E068A8B10121396000F0FCF8A5
:1002A00005463068810705D400F0F6F8401B0228A7
:1002B000F7D9B8E73068216920F0F80040EAC100BA
:1002C00030609CE7386000F0E7F805463168880741
:1002D00095D500F0E1F8401B0228F7D9A3E70860A4
:1002E00000F0DAF80546706F810705D500F0D4F804
:1002F000401B0228F7D996E7207841075FD5306C7C
:100300000025C1000AD400950125316C41F08051CF
:100310003164306C00F0805000900098DFF87481F8
:10032000D8F80000C10513D4D8F8000040F480705C
:10033000C8F8000000F0B0F88146D8F80000C10508
:1003400006D400F0A9F8A0EB09000228F5D96AE765
:10035000A068012805D00528306F06D140F00400C0
:100360003067306F40F0010005E040084000306722
:10037000306F20F00400306741F28938A06860B126
:1003800000F08AF88146306F810713D400F084F8BA
:10039000A0EB09004045F6D345E700F07DF8814623
:1003A000306F810706D500F077F8A0EB09004045D3
:1003B000F6D338E71DB1306C20F080503064A0696E
:1003C00000285ED0B16801F00C0108293AD002285B
:1003D0002AD10020386600F05FF8054630688101B8
:1003E00005D500F059F8401B0228F7D91BE7E06952
:1003F000216A626A0843A16A490840EA8210491EDC
:1004000040EA0140E16A40EA01607060012038661C
:1004100000F042F804463068810132D400F03CF824
:10042000001B0228F7D9FEE60020386600F034F8F9
:1004300004463068810124D500F02EF8001B022804
:10044000F7D9F0E601281AD0B068E26900F480011B
:10045000914202BF00F03F01226A91420FD147F65C
:10046000C071626A0140914202BF00F44031A26A49
:10047000914202BF00F07060E16A884201D0012021
:1004800000E00020BDE8F28300380240000047424F
:10049000800E47420070004001484068704700BF2E
:1004A0000000002038B5040001D1012032BD00F069
:1004B00021F808B900F022F800F012F800F023F853
:1004C000FFE7416100F001F832BD2068C16841F4E6
:1004D0000051C1600020686020216970A9707047D8
:1004E000242068702068C16821F40051C160204652
:1004F00000F0B8B804F13805687870470021297019
:10050000204600F03BB92068016921F49041016167
:100510002068416921F02A0170477CB5044604F146
:1005200038051346A87820283ED109B1180001D11A
:10053000012076BD2878012836D001202870A162DC
:10054000A38500226A602220A8700026606B0FF24B
:100550005D02C263606B0FF28D020264606B0FF28A
:100560008D02C2640A46606B06652668606B311DA9
:1005700000F0DDF90020009021680A680092002256
:100580004B68009300982A70CB6843F48073CB606B
:100590002068416941F0010141612068416941F0F1
:1005A00040014161002076BD022076BD816B00686C
:1005B0000268D30513D40020C8850868C26822F4F5
:1005C0008072C2600868426952085200426108683D
:1005D000426922F040024261202081F83A00084638
:1005E00000F000BA806B00F0FEB9000038B5846BF3
:1005F0002068406904F139052978212906D10106CE
:1006000004D50022E284204600F015F821684869EC
:100610006978222906D1400604D50021E1852046CB
:1006200000F012F8E06B40F01000E0632046BDE8F7
:10063000324000F0D9B90168CA6822F0C002CA602D
:10064000202180F8391070470168CA6822F490723E
:10065000CA6001684A69520852004A61202180F844
:100660003A107047D0B50646642732681169F068C1
:1006700021F44051014311611924D3682C48B16819
:10068000034030690B4371690343F0690B43034333
:10069000D3605169B06921F4407101435161F3693C
:1006A00024482549B3F5004F1FD18A4218BF824222
:1006B00002D100F045FA01E000F03AFA0246A4FB4C
:1006C00002017268D30F520000F082FA00F036F88F
:1006D000FF0032376420B7FBF0F0420002F4F872FA
:1006E00002EB011200F007001DE08A4218BF8242AF
:1006F00002D100F025FA01E000F01AFA0246A4FB4C
:1007000002017268930F920000F062FA00F016F88E
:100710003F0132376420B7FBF0F000F0F00202EB4B
:10072000011200F00F00316880188860D0BD000011
:10073000F369FFFF00140140001001406421B0FB89
:10074000F1F107FB1107704781B0002000900022F3
:100750003548416841F480414160416801F480417D
:10076000009100990092036843F080530360006891
:1007700000F080500090009801B0704738B586B006
:1007800004461422002101A800F0A5FA2168274898
:10079000814247D100222648264D0092016941F44A
:1007A00080210161016901F480210091009900928A
:1007B0004FF44061036843F00203036002220068C3
:1007C00000F00200009000981B4801910292012164
:1007D0000391032207210591049201A900F09CFADC
:1007E000164828604FF0006169604FF48070002265
:1007F0004FF48061E861AA60EA6029616A61AA61D8
:100800002A626A62284600F01BF808B100F061FC19
:100810006563AC6300220021272000F079FC2720CB
:1008200000F093FC07B030BD403802400048004063
:10083000303802409001002000040240286002404D
:1008400070B50446FFF728FE06460CB9012070BDBE
:1008500004F13405002028700221697020680268C4
:1008600052085200026022681068C1070AD5FFF7DB
:1008700013FE801B0628F6D320202862032169700E
:10088000032070BD1368DFF8080161680340A068A9
:100890000B43E168034320690B4361690343A0698B
:1008A0000B43E1690343206A0B43616A0343042954
:1008B00003D1E16A206B01430B43136023685A693B
:1008C000606AD208042840EAC2020AD1A66AE16A34
:1008D000324331B1A06988B9002E18BF022E1FD053
:1008E00016D35A61204600F065F8A96A3F228A4073
:1008F0008260002028620121697070BDB0F5005F40
:100900000AD1032EEDD8DFE806F00D0B0D03E8E762
:10091000B1F1C07FE5D105E0022E03D9F61EE0D18A
:10092000C801DED5402129620120687070BDF8B58C
:10093000044604F1340600253078776A012801D195
:100940000220F2BD01203070707801281CD10220F5
:1009500070703562204600F01DF8B06A3F2101FA40
:1009600000F0B8602068016841F016010160F0688D
:1009700020B12068016841F0080101602068016829
:1009800041F00101016001E0357002252846F2BD09
:100990003F8010F030B50468256825F48025256077
:1009A00063608068402802D1A260E16030BDA16030
:1009B000E26030BD30B5016808A401F0FF02103AD2
:1009C0001823B2FBF3F2890A8902A55CC565042AE3
:1009D00028BF091D8165084630BD000000061016BD
:1009E0000006101670477047704730B4002513E0BA
:1009F00050F8042BD30744BFA9F101039A18091F2B
:100A0000042942F8045BFAD213468C0744BF1580D0
:100A10009B1CC90748BF1D7050F8041B0029E7D173
:100A200030BC70472DE9F04104000F4654D0494EC8
:100A3000306800F00F00B84202D200F073F84BD1DA
:100A40002068454D810712D5400703D5A96841F4B8
:100A5000E051A9602078010703D5A86840F4604000
:100A6000A860A968A06821F0F0010143A96021787D
:100A7000C80729D56068012802D129688A0305E0E2
:100A8000022818BF032803D129688A0103D423E070
:100A900029688A0720D5A968890840EA8100A860EA
:100AA000FFF7FAFC8046A868616800F00C00B0EB24
:100AB000810F09D0FFF7F0FCA0EB080041F289316B
:100AC0008842F0D303202BE0306800F00F0087420B
:100AD00004D200F027F801D0012021E0207841075E
:100AE00005D5AA68E06822F4E0520243AA602178A2
:100AF000080706D5A968206921F4604141EAC001D0
:100B0000A96000F035F8AA681449154BC2F3031226
:100B1000895CC84018601348006800F041FB002061
:100B2000BDE8F0813770316801F00F01B9427047BC
:100B30000B480D4A006813680C49C3F3822206E093
:100B40000748094A006813680849C3F34232895CC0
:100B5000C8407047003C02400038024000140008C2
:100B60000C0000200800002008380240F41400089F
:100B700030B5144C606800F00C00042802D008283E
:100B800002D01DE0104830BD2268206800234102D9
:100B900002F03F0204D525680B49C5F3881003E035
:100BA00020680A49C0F38810A1FB000100F010F88A
:100BB0002168C1F30141491C4900B0FBF1F030BD8F
:100BC000024830BD0438024000127A000024F400CC
:100BD000D3BBD9B1B2F5803F5BD2022A1ED98C4675
:100BE000B1FBF2F102FB11C31B0443EA1043B3FB58
:100BF000F2FC02FB1C3380B240EA0343B3FBF2F089
:100C000002FB103240EA0C4000237047022A05D94B
:100C10008446B0FBF2F002FB10C270474AB105D126
:100C200000F0010249085FEA30007047002200230B
:100C3000704700F0D5BA0B00020000210020704779
:100C4000F7D3002200237047904271EB030CF2D3DC
:100C500070B5B1FA81F4B3FA83F52C1BA340C4F14B
:100C6000200532FA05F63343A2405FF00046E64025
:100C700002E05B085FEA3202841A71EB030524BFCD
:100C8000204629467641F4D302000B0030000021B3
:100C900070BD70B5B1FA81F4B2FA82F5C4F12004E6
:100CA0006419B4F12006DAD3B2405FF00044F44096
:100CB000002502E052085FEA3303C61A71EB020E08
:100CC00024BF3046714664416D41F3D302000B00EE
:100CD0002000290070BD10B5044610460A460146A2
:100CE000204600F07FFA204610BD30B40EE00268C6
:100CF000436802440830DC0744BFA9F10104E3184B
:100D000052F8045B43F8045B091FF9D150F8041B47
:100D10000029ECD130BC70472DE9F84F0D46002674
:100D20006B496C4A0F23044601202F68B04000EA4B
:100D30000708804540F0C1804FEA460C032707FAB8
:100D40000CF76FEA070E6F68012F18BF022F03D050
:100D5000112F18BF122F12D1A768D5F80C900EEAE8
:100D6000070709FA0CF949EA0707A760676827EA45
:100D700000006F68C7F30017B74038436060E06851
:100D8000AF680EEA000007FA0CF73843E060B000E5
:100D90006F68022F18BF122F12D1F70804EB8707D4
:100DA00000F01C09D7F820A003FA09FB2AEA0B0A75
:100DB000D5F810B00BFA09F949EA0A09C7F82090EA
:100DC00027680EEA070E2F7907F0030707FA0CF7DA
:100DD00047EA0E0727606F68FF006ED5002700976F
:100DE0004FEA960C176847F48047176000F00C0034
:100DF000176807F48047009703FA00FE009F364FFC
:100E000057F82C7027EA0E0E344FBC4208BF00275B
:100E100022D0334FBC4208BF01271DD0314FBC4206
:100E200008BF022718D0304FBC4208BF032713D099
:100E30002E4FBC4208BF04270ED02D4FBC4208BF26
:100E4000052709D02B4FBC4208BF062704D02A4FE4
:100E5000BC420CBF0727082707FA00F01E4F40EAE4
:100E60000E0047F82C006FEA08000F6800EA070C34
:100E70006F68FF0348BF48EA0C0CC1F800C04F6818
:100E800000EA070C6F68BF0348BF48EA0C0CC1F8C2
:100E900004C08F6800EA070C6F68FF0248BF48EA89
:100EA0000C0CC1F808C0CF6800EA070C6868800223
:100EB00048BF48EA0C0CC1F80CC0761C0F2E7FF618
:100EC00033AFBDE8F18F02B90904816170470000BA
:100ED000003C014044380240083801400000024014
:100EE0000004024000080240000C024000100240D2
:100EF0000014024000180240001C024010B586B0E9
:100F000000F0A4F900F06EF80020684C0090012376
:100F1000216841F0800121600021206800F08000FC
:100F200000F05BF842F002022260206800F002004C
:100F300000F053F842F001022260206800F0010046
:100F400000F04BF842F0080222604FF400422068A3
:100F500000F00800009000990192029301A9544802
:100F6000FFF7DAFE002000900022216841F4001112
:100F70002160002120684F4C00F400100090009880
:100F80000C2000F0C5F80C2000F0DFF84A4820647F
:100F90004FF4E13161640020A064E06420650C211D
:100FA000A065E065616504F14000FFF77BFA206C05
:100FB000C16841F01001C160D4F88000016841F0BF
:100FC000100101602146026822F00802026004F16B
:100FD00040004022FFF7A1FAFEE700900098009140
:100FE0002268704780B592B0302106A800F048F919
:100FF000142101A800F044F9002000902F48016856
:1010000041F0805101600021006800F080500090A4
:1010100000982B4800910221026842F4804202604D
:101020000122006800F48040009000980691099227
:1010300010210A91022200210C920D910822A82170
:101040000E920F91022207211092119106A8FFF72C
:101050009BF802210291002203920F204FF4A0512D
:10106000019004914FF480520592052101A8FFF7E9
:10107000D9FC13B000BD000038B5124C0D49402218
:10108000204600F001F900BF12A1204600F008F947
:1010900030B9074D012200F017F8002200F014F8D3
:1010A0002046BDE83440402100F0EAB83038024024
:1010B000000C02401001002000480040403802406F
:1010C00000700040F00100204FF400412846FFF777
:1010D000FABE7047756E6C6F636B00000901020009
:1010E00002D4294881547047284B02F00F021A4459
:1010F00002F8041C7047264B19684FF6FF020002E5
:10110000114000F4E060084322490843186070472A
:1011100070B51F4B1C68C4F302230124C3F10705FB
:10112000052D2EBF0F2504FA05F56D1E1E1D072E79
:1011300034BF0023DB1E2940994004FA03F3BDE8C5
:1011400070405B1E1A401143C8E7010007D401221A
:1011500000F01F01104B8A40400943F820207047DF
:1011600010B5401EB0F1807F01D3012010BD0B4CA3
:1011700060600F214FF0FF30FFF7B0FF0021A1604A
:1011800007202060002010BD00E400E018ED00E022
:101190000CED00E00000FA0500E100E010E000E0E6
:1011A00038B50D4D0D4B2A7804464FF47A71186806
:1011B000B1FBF2F2B0FBF2F0FFF7D2FF50B9102C06
:1011C00008D2002221464FF0FF30FFF7A1FFAC60AC
:1011D000002032BD012032BD000000200C000020A4
:1011E0007047000062F30F2262F31F42401810F0B4
:1011F000030308D0C91A1FD3DB0748BF00F8012D2D
:1012000028BF20F8022D130030B4144615461039BB
:1012100028BF20E93C00FAD8490728BF20E90C0084
:1012200048BF40F8042D890028BF20F8022D48BF90
:1012300000F8012D30BC7047C91818BF00F8012D07
:10124000CB0728BF00F8012D7047000080B50B4880
:10125000016841F400710160026842F4806202603A
:10126000016841F4807101600320FFF744FF002012
:10127000FFF796FFFFF768FA002002BD003C02402E
:10128000002200F017B800004AB1000011F8013B3D
:10129000521E00F8013B1CBF11F8013BF8E77047F4
:1012A00010F8012B11F8013B0AB19A42F8D0D01A7C
:1012B0007047000000B500BF1300964694461039F1
:1012C00028BFA0E80C50FAD85FEA417C28BF0CC0C8
:1012D00048BF40F8042BC90728BF20F8022B48BF9D
:1012E00000F8012B00BD00001CB502681068C306A1
:1012F0000CD5146800945268009208680168490887
:1013000049000160BDE81340FFF7B6BE13BD2DE9EB
:10131000F84F05462F68D5F858803868C1063AD589
:10132000E86D1E4EDFF87890DFF878A04FF4006289
:101330008240C8F8082049467C68C4F140047460C3
:10134000D6F800B0CBF58070844238BF2046B0603C
:101350000246C6F80C900AEB0B00FFF795FFB36846
:101360009B44C6F800B0E41A746009EB0301F16015
:1013700004D022465046FFF787FF34603F21E86DD6
:101380008140C8F80810C7F80C904021796038688F
:1013900040F001003860BDE8F18F0000300200200D
:1013A00010010020100000207047FEE7FEE7FEE776
:1013B000FEE770477047704700F00CB803490448D7
:1013C000FFF7A5BF02490148FFF78EBF500100207B
:1013D000900100200248416802788A1842607047F4
:1013E000000000200448054A016841F470010160D2
:1013F0004FF000601060704788ED00E008ED00E0FD
:1014000000000000000000000102030406070809B4
:1014100010B5074979441831064C7C44163404E071
:101420000A68081D114488470146A142F8D110BD41
:101430002C0000004C0000004EF68851CEF2000156
:10144000086840F470000860BFF34F8FBFF36F8FE0
:101450004FF00070E1EE100A704700008FF5FFFFBB
:101460003002000010000020000000007FF8FFFFA5
:1014700010000000640000000000002000000000D8
:1014800000F00DF8002801D0FFF7C2FFAFF3008095
:101490000020AFF30080FFF731FD00F002F80120DB
:1014A000704700F001B800000746384600F002F827
:1014B000FBE7000080B5AFF30080024A110018205E
:1014C000ABBEFBE726000200014880470148004709
:1014D000E5130008E9140008010000000000000006
:1014E000100000000024F400AFF30080FFF7A4FF19
:1014F000FFF7C6FF0000000001020304FFF7FEBF74
:10150000FFF7FEBFFFF7FEBFFFF7FEBFFFF7FEBF0F
:10151000FFF7FEBFFFF7FEBFFFF7FEBFFFF7FEBFFF
:10152000FFF7FEBFFFF7FEBFFFF7FEBFFFF7FEBFEF
:10153000FFF7FEBFFFF7FEBFFFF7FEBFFFF7FEBFDF
:10154000FFF7FEBFFFF7FEBFFFF7FEBFFFF7FEBFCF
:10155000FFF7FEBFFFF7FEBFFFF7FEBFFFF7FEBFBF
:10156000FFF7FEBFFFF7FEBFFFF7FEBFFFF7FEBFAF
:10157000FFF7FEBFFFF7FEBFFFF7FEBFFFF7FEBF9F
:10158000FFF7FEBFFFF7FEBFFFF7FEBFFFF7FEBF8F
:10159000FFF7FEBFFFF7FEBFFFF7FEBFFFF7FEBF7F
:1015A000FFF7FEBFFFF7FEBFFFF7FEBFFFF7FEBF6F
:1015B000FFF7FEBFFFF7FEBFFFF7FEBFFFF7FEBF5F
:1015C000FFF7FEBFFFF7FEBFFFF7FEBFFFF7FEBF4F
:1015D000FFF7FEBFFFF7FEBFFFF7FEBFFFF7FEBF3F
:1015E000FFF7FEBFFFF7FEBFFFF7FEBFFFF7FEBF2F
:1015F000FFF7FEBFFFF7FEBFFFF7FEBFFFF7FEBF1F
:10160000FFF7FEBFFFF7FEBFFFF7FEBFFFF7FEBF0E
:10161000FFF7FEBFFFF7FEBFFFF7FEBFFFF7FEBFFE
:10162000FFF7FEBFFFF7FEBFFFF7FEBFFFF7FEBFEE
:08163000FFF7FEBFFFF7FEBF4C
:04000005080014E9F2
:00000001FF
